:100000000C940D040C9435040C9435040C947C0F62
:100010000C94570F0C9435040C9435040C9435044F
:100020000C9435040C9435040C9435040C9435046C
:100030000C9435040C9435040C9435040C94010F85
:100040000C9435040C9435040C9435040C9435044C
:100050000C9435040C9435040C9435040C9435043C
:100060000C94A10F0C9444100C9435040C94D30EF2
:100070000C94AD0E0C9435040C943504FB00003E3A
:10008000000B003600010002000300000065005470
:10009000FFEF0000FA80000B128200010002000056
:1000A0000000000000000000000000000028000028
:1000B000FFFF4581FFFFFA7200000000000003E827
:1000C0000000000100017FFFFFFE8001001B000017
:1000D00000000000000000000000000000400000E0
:1000E0004000000002CB47A22000000020000000DA
:1000F00000000000400000006000000041FF000020
:1001000000000B2A0000165500002182FD872650B2
:10011000FD800000001F00000005800000000000BE
:100120000001000000020000000300004000000089
:100130000000046F0002653200005EC04000000055
:10014000000000000000000000000000FB8C6F5D5C
:10015000FD5D08D9007C733B006C12CC3200139D0E
:100160003200D0D632000800400001F4FFE680796A
:10017000020000000000D0D600002710FB000000A5
:10018000400000000000000000000000000000012E
:100190000000000000000100010000000000FA362D
:1001A000FFBC308E0005FBF0FFD95BC8FFD09ABEC4
:1001B000000010A9FFF41EB200CEBBF70000000142
:1001C00000000004000200020200000CFFC28000D8
:1001D0000001800000CF800040000000000000000F
:1001E00000000000000006000000001400000000F5
:1001F00000000000000000000000000000000000FF
:100200000000000000000000000000000923A135EC
:1002100000000000000000000000000000000000DE
:10022000033F68B6793528BCC67ED16C8000FFFFDD
:10023000400000000000B26A000000000000000062
:100240000000000000003FF000000030000000004F
:10025000000000000000000000000000000000009E
:100260000000000000000000000040000000254DDC
:10027000002F706D000005AE000C02D000000000E1
:1002800000650054FFEF00000000000000000100C6
:100290000044000100058BC10000010000000000C7
:1002A0000065000000540000FFEF000000000000A7
:1002B000000000000000000000000000000000003E
:1002C000000000000000000000000000000000002E
:1002D000000000000000000000000000000000011D
:1002E000000000020000000000000000000000000C
:1002F00000000000000000000000000000000000FE
:10030000000000000000000000000000001B0000D2
:1003100000000000000000000000000000000000DD
:1003200000000000000000000000000000000000CD
:10033000000000000000000000000000001B0000A2
:1003400000000000000000000000000000000000AD
:10035000000000000000000000000000000000009D
:10036000000000000000000000000000000000008D
:10037000000000000000000000000000D8DCBAA26D
:10038000F1DEB2B8B4A88191F74A907F916AF3F98F
:10039000DBA8F9B0BAA080F2CE81F3C2F1C1F2C3FA
:1003A000F3CCA2B280F1C6D880BAA7DFDFDFF2A714
:1003B000C3CBC5B6F087A2942448703C95406834FE
:1003C000589B78A2F183922D557DD8B1B4B8A1D0B5
:1003D0009180F270F370F27C80A8F101B09887D917
:1003E00043D886C988BAA1F20EB89780F1A9DFDF99
:1003F000DFAADFDFDFF2AA4CCD6CA90CC92C9797DE
:100400009797F1A989264666B0B4BA80ACDEF2CAE5
:10041000F1B28C02A9B69800890E161EB8A9B4993B
:100420002C547CB08AA896365676F1B9AFB4B08316
:10043000C0B8A89711B18F98B9AFF02408441064E0
:1004400018F1A329557DAF83B593AFF0002850F183
:10045000A3869F61A6DADEDFD9FAA38696DB31A6F2
:10046000D9F8DFBAA68FC2C5C7B28CC1B8A2DFDF88
:10047000DFA3DFDFDFD8D8F1B8A8B286B4980D3596
:100480005DB8AA98B0872D353DB2B6BAAF8C961933
:100490008F9FA70E161EB49AB8AA872C547CB9A3B6
:1004A000DEDFDFA3B180F2C4CDC9F1B8A9B499836E
:1004B0000D355D89B9A32D557DB593A30E161EA9E3
:1004C0002C547CB8B4B0F19783A81184A50998A3E3
:1004D00083F0DA240844106418D8F1A529557DA5C5
:1004E0008595021A2E3A565A4048F9F3A3D9F8F0E6
:1004F00098832408441064189782A8F111F098A2F8
:10050000240844106418DAF3DED883A59401D9A333
:1005100002F1A2C3C5C7D8F18492A24DDA2AD84805
:1005200069D92AD86855DA32D85071D932D8705D75
:10053000DA3AD85879D93AD87893A34DDA2AD848F4
:1005400069D92AD86855DA32D85071D932D8705D55
:10055000DA3AD85879D93AD878A88A9AF0285078CF
:100560009EF38818F19F1D98A8D908D8C89F129E9D
:10057000F315A8DA1210D8F1AFC8978734B5B9943B
:10058000A421F3D922D8F22DF3D92AD8F235F3D900
:1005900032D881A4606061D961D86C6869D969D8A2
:1005A000747071D971D8B1A384193D5DA3831A3ECB
:1005B0005E931030811011B8B0AF8F94F2DA3ED84C
:1005C000B49AA88729DAF8D8879A35DAF8D8879ABA
:1005D0003DDAF8D8B1B9A49885022E56A581000C51
:1005E00014A397B08AF12DD928D84DD948D86DD900
:1005F00068D8B1840DDA0ED8A32983DA2C0ED8A3DB
:10060000844983DA2C4C0ED8B8B0A88A9AF520AA6F
:10061000DADFD8A840AAD0DADED8A860AADAD0DF1C
:10062000D8F19786A8319B069907AB9728889BF04D
:100630000C201440B8B0B4A88C9CF0042851791D4B
:10064000301438B282ABD0982C505078789BF11A85
:10065000B0F08A9CA82951798B2951798A24705944
:100660008B2058718A4469388B3940688A644831D4
:100670008B304960A5882009715844681139644954
:100680003019F1AC002C547CF08CA804285078F17F
:10069000889726A85998AC8C02264666F0899CA8B3
:1006A000295179247059446938644831A98809204E
:1006B0005970AB11384069A8193148608CA83C4189
:1006C0005C207C00F187981986A86E767EA99988AF
:1006D0002D557D9EB9A38A228A6E8A568A5E9FB165
:1006E00083062646660E2E4E6E9DB8AD002C547CB9
:1006F000F2B18CB499B9A32D557D8191AC38AD3A46
:10070000B58391AC2DD928D84DD948D86DD968D8A2
:100710008C9DAE29D904AED851D904AED879D9046C
:10072000D881F39DAD008DAE1981ADD901D8F2AE5F
:10073000DA26D88E912983A7D9ADADADADF32AD8ED
:10074000D8F1B0AC89913E5E76F3AC2E2EF1B18C2F
:100750005A9CAC2C2828289CAC3018A898812834A6
:100760003C9724A728343C9C24F2B089AC912C4CB3
:100770006C8A9B2DD9D8D851D9D8D879D9D8D8F165
:100780009E88A331DAD8D8912DD928D84DD948D808
:100790006DD968D8B18393353D8025DAD8D885697D
:1007A000DAD8D8B49381A328343CF3AB8BF8A39167
:1007B000B609B4D9ABDEFAB0879CB9A3DDF1202825
:1007C00030389AF12830389DF1A3A3A3A3F2A3B443
:1007D0009080F2A3A3A3A3A3A3A3A3A3A3B2A3A3C1
:1007E000A3A3A3A3B087B599F128303898F1A3A3A8
:1007F000A3A397A3A3A3A3F39BA330DCB9A7F126DC
:100800002626FED8FF1112131415160A0B0C0D0E16
:100810000F00010203040500FC1011241FBECFEFDE
:10082000CDBFDFE3DEBF2AE3A6E0B8E301C01D923F
:10083000AE30B207E1F718E3A0E0B8E3E0E1FAE395
:1008400002C005900D92A630B107D9F714E0CDE0B3
:10085000D4E004C02197FE010E94421BCC30D10796
:10086000C9F70E948E110C94891C0C940000809191
:10087000A5389091A638891B990B089500008093A4
:1008800024088091230887FFFCCF809124080895D5
:10089000FC01508D418D252F30E0842F90E0821B8C
:1008A000930B541710F0CF96089501970895FC010B
:1008B00096898789981761F0A789AE0FBF2FB11D60
:1008C0005D968C9197899F5F9F73978B90E00895B9
:1008D0008FEF9FEF0895FC0196898789981731F073
:1008E0008789E80FF11D858D90E008958FEF9FEFC8
:1008F0000895FC0196892789892F90E0805C9F4F9D
:10090000821B91098F7399270895CF93DF93EC0190
:10091000E881F9810284F385E02D0995EC85FD8558
:1009200086818F738683EC85FD8585818F758583B0
:100930008F898E8B1D8ADF91CF910895CF93DF939E
:10094000FC01908D818DC485D585981306C08D815D
:100950008F7D8D83DF91CF910895A18DAE0FBF2F35
:10096000B11DA35ABF4F2C91818D90E001968F73DA
:100970009927818F80E48C83A485B58512962C936A
:10098000908D818D9813E6CFA485B58515968C91B1
:1009900015978F7D15968C93838D8823D9F2848D3E
:1009A00080931301138ED6CFDC011C96ED91FC9140
:1009B0000FB607FE03C0258125FD04C0248125FD57
:1009C0000C949E040895EF92FF920F931F93CF9380
:1009D000DF93EC0181E08D8B988D898D98131CC07D
:1009E000AC85BD8514968C91149785FF15C0129621
:1009F0006C93AC85BD8580E414968C93EC85FD8565
:100A000085818F7D858381E090E0DF91CF911F917B
:100A10000F91FF90EF9008958091110180FF08C021
:100A2000809113018C8F8A8D8093130181E08B8FCD
:100A3000F62E088D10E00F5F1F4F0F731127E02E69
:100A4000898D8E1104C0CE010E94D404F9CFE88DA7
:100A5000EC0FFD2FF11DE35AFF4FF082088FEC855C
:100A6000FD8585818062CECFCF93DF93FC01258900
:100A70002223C9F0EC018091110180FF08C0809110
:100A80001301848F828D8093130181E0838FEC8525
:100A9000FD85858185FD03C0848186FD04C0CE016E
:100AA0000E94D404F4CFDF91CF9108958AEE98E3A9
:100AB0000E94790421E0892B09F420E0822F089517
:100AC00080E090E0892B29F00E94560581110C945A
:100AD00000000895AF92BF92CF92DF92EF92FF9203
:100AE0000F931F93CF93DF936C017B018B01040F56
:100AF000151FEB015E01AE18BF08C017D10759F0F2
:100B00006991D601ED91FC910190F081E02DC60133
:100B10000995892B79F7C501DF91CF911F910F912D
:100B2000FF90EF90DF90CF90BF90AF90089581E05D
:100B30000895282F30E0F901E05CF64440814F3FF2
:100B400009F448C08C3050F4F901EA5EF644808123
:100B5000882321F0803191F0803821F1F901EC5C9B
:100B6000F644E08180E2E89FF0011124FC5F80817F
:100B70008423E9F0611119C046830895F901E85D05
:100B8000F6445081533008F05F5F7091010A81E0B4
:100B900090E001C0880F5A95EAF7809587238093EB
:100BA000010ADCCF1092A006D9CF45830895285DB5
:100BB0003644D9018C91309771F08F3F61F0709677
:100BC000E80FF11D9FB7F8948081611107C0877FFE
:100BD00080839FBF0895F0E0E0E0F4CF8860F8CF15
:100BE000CF93DF9390E0FC01E05CF64420812F3F3F
:100BF00061F0FC01EC5CF644E08130E2E39FF0013F
:100C00001124FC5F613021F42183DF91CF9108959D
:100C1000885D9644EC01A881AF3F69F0CF01409612
:100C2000A80FB92FB11D9FB7F89422838C918860CB
:100C30008C939FBFEACFB0E0A0E0F5CF8F929F9258
:100C4000AF92BF92DF92EF92FF920F931F93CF93D9
:100C5000DF93EC014A015B01F22E8D89882339F084
:100C6000E881F9810088F189E02DCE0109950C8990
:100C700010E0DFB6F89460E074EB84EC94E0A5013A
:100C800094010E940D1B2F5F3F4F4F4F5F4F5695B2
:100C9000479537952795EC85FD8586818D7F8683E1
:100CA000EC85FD85868186831D8AA09124110A2EFC
:100CB000000CBB0BBC5F0E943A1BEC85FD852AE053
:100CC00095958795779567952A95D1F76087718770
:100CD000EC85FD85F782EC85FD858681806C8683B9
:100CE000EC85FD85858180688583909101028B89E3
:100CF000809589237801EE0CFF1CF701E00FF11FAE
:100D0000EC0FFD1F9089892B8093010286858C3022
:100D100018F462E00E94F005F701E00FF11FEC0FFC
:100D2000FD1F87858C3018F461E00E9499050E0D37
:100D30001F1DC00FD11F8F858C3018F461E00E94F9
:100D4000F005DFBEDF91CF911F910F91FF90EF90E3
:100D5000DF90BF90AF909F908F9008958FB7F894D9
:100D600020911A3830911B3840911C3850911D3811
:100D700098E09093840A90918E0A91FFFCCFE091C5
:100D8000A20AF091A30A90918D0A90FF08C0BF01BA
:100D90006627672B21F42E5F3F4F4F4F5F4F8FBF6A
:100DA000BF0176956795CF01860F911DE62FE695D9
:100DB000E695762F72957F70E71BFF0B67FD3196E6
:100DC000E80FF91FA0E3B3E00E942F1B6E0F7F1FF7
:100DD000811D911D08958F929F92AF92BF92CF92E5
:100DE000DF92EF92FF924B015C010E94AE066B0115
:100DF0007C01A8EEB3E0A50194010E942F1BC60E52
:100E0000D71EE81EF91EC616D706E806F90618F41E
:100E10000E94AE06F8CF0E94AE066C157D058E05C9
:100E20009F05C8F3FF90EF90DF90CF90BF90AF90F9
:100E30009F908F9008952FB7F89460911638709115
:100E4000173880911838909119382FBF0895EF9274
:100E5000FF920F931F93CF93DF9390E2899FE0015E
:100E60001124DC5FE984082F000F000F000FFF241E
:100E7000F39410E08E2D8F2179F0E02FE10FF0E058
:100E8000EE0FFF1FED5DF74C80819181892B21F0E2
:100E90000190F081E02D09951F5FFF0C183051F78C
:100EA000E986DF91CF911F910F91FF90EF90089508
:100EB000E0E1F8E091859066918792E09093223886
:100EC0008093083810920738089581E0809307389E
:100ED0001092083893E090931A0890911B0891FFA4
:100EE0000BC010921238F0E0E0E0099580931138C1
:100EF00085E080932238089510921338809310383B
:100F000086E0F7CF0F9390912238913009F04EC0D0
:100F100030911F3831114CC090931F3810921E38F9
:100F200060930A3870930B3840930C3820930E3836
:100F3000109220381092213800930D38880F80933A
:100F4000093893E024E080910C38882331F09093A5
:100F50002238809109388E7F09C080910E3888230D
:100F600041F02093223880910938816080931708DE
:100F700008C080910C38811104C080910E388823FC
:100F800031F380911E388823E1F380911E3883303D
:100F9000D1F280910E38882321F0809121380F9171
:100FA000089590911E3881E09130C9F780E0F7CF25
:100FB00081E0F5CF0F9301E020E04091E93868EC43
:100FC00078E38091E8380E9482071092C738109227
:100FD000E9380F9108950895E091A6388091A538D9
:100FE000E81730F4F0E0E955F74C808190E008957F
:100FF0008FEF9FEF08959091A6388091A5382FEF3D
:101000003FEF981748F4E92FF0E0E955F74C2081BD
:1010100030E09F5F9093A638C9010895CF92DF9288
:10102000EF92FF920F931F93CF93DF937C018A017E
:10103000EB016B01C40ED51ECC15DD0551F0699195
:10104000D701ED91FC910190F081E02DC701099548
:10105000F3CFC801DF91CF911F910F91FF90EF90D7
:10106000DF90CF9008952091E938203240F021E0C0
:1010700030E0FC012283338390E080E0089580918A
:10108000C738E82FF0E0E853F74C60838F5F809318
:10109000C7388093E93881E090E00895CF93DF93DB
:1010A000EA018093E8381092C7381092E93885EA4F
:1010B00099E30E943308698185EA99E30E94330825
:1010C000688185EA99E30E9433080E94DA0791E07B
:1010D000811190E0892FDF91CF9108954F925F9217
:1010E0006F927F928F929F92AF92BF92DF92EF9218
:1010F000FF920F931F93CF93DF93182F062F7A0140
:10110000E9010E941B074B015C011093E838109223
:10111000C7381092E938602F85EA99E30E943308B6
:101120000E94DA071092C7381092E93887EA98E3EC
:101130008093A3389093A43801E022E040E070E06F
:1011400060E0812F0E9482071092A6388093A53814
:1011500010E02E01712C612CDD24D3949091A538E0
:101160008091A638981739F1111125C02097C1F444
:1011700001110EC085EA99E30E94FB07F701208167
:101180003181822B932B8083918311E00D25E6CF53
:1011900085EA99E30E94FB07F70110828183F6CF6D
:1011A0000E941B07681979098A099B09641575054E
:1011B00086059705E8F20E94DA07209799F00E94C9
:1011C0001B07AB01BC01481959096A097B09CE010B
:1011D000B0E0A0E0481759076A077B0718F0111123
:1011E00001C01FEF812FDF91CF911F910F91FF90D1
:1011F000EF90DF90BF90AF909F908F907F906F9017
:101200005F904F900895DC01ED91FC910684F78585
:10121000E02D23E030E00994FF920F931F93CF93CA
:10122000DF93042FF22E132F8093E8381092C738E3
:101230001092E93885EA99E30E943308CF2DD12F27
:101240000C0F1D2F111DC017D10731F0699185EAD0
:1012500099E30E943308F7CF0E94DA0791E08111E9
:1012600090E0892FDF91CF911F910F91FF9008950A
:10127000CF93DF931F92CDB7DEB749839E012F5FD7
:101280003F4F41E00E940C090F90DF91CF910895EC
:101290002F923F924F925F926F927F928F929F9286
:1012A000AF92BF92CF92DF92EF92FF920F931F9374
:1012B000CF93DF93CDB7DEB72597CDBFDEBF8A834F
:1012C0006B83F42E69010C831D830E941B074B0165
:1012D0005C012F2C312CF98220E22F1510F430E222
:1012E0003983E12C10E08C819D812C01712C612CC3
:1012F000EF1408F054C09A819093E8381092C738E0
:101300001092E9386B8185EA99E30E9433080E94C4
:10131000DA071092C7381092E93891012E19310975
:101320002032310514F020E230E087EA98E3809320
:10133000A3389093A43833272132310514F020E2EA
:1013400030E001E040E070E060E08A810E948207C6
:10135000082F1092A6388093A5388091A6380817D8
:10136000D9F02C813D81232B61F485EA99E30E9419
:10137000FB07F601E10FF11D17FDFA9580831F5F52
:10138000ECCF0E941B07681979098A099B0964152B
:1013900075058605970548F33981E30EA9CF8C8141
:1013A0009D81892BD1F00E941B07AB01BC0148191C
:1013B00059096A097B092C813D81C901B0E0A0E08F
:1013C000481759076A077B0740F0812F012E000C50
:1013D000990B821593050CF41FEF812F2596CDBF35
:1013E000DEBFDF91CF911F910F91FF90EF90DF90C3
:1013F000CF90BF90AF909F908F907F906F905F90B5
:101400004F903F902F9008950F931F93CF93DF93AA
:10141000CFEDD9E308EE13E020EE39E342E062E7D6
:1014200088810E94480989819A819827892798276D
:10143000DF91CF911F910F910895BF92CF92DF92CC
:10144000EF92FF920F931F93CF93DF931F92CDB72D
:10145000DEB7F82EE62EC42EB22ED02E08EE13E004
:101460009E012F5F3F4F41E00E944809882371F1A0
:101470008C2D8B19990BAC014F5F5F4F81E090E091
:1014800002C0880F991FBA94E2F70197042E01C099
:10149000880F0A94EAF70D2D01C0000F4A95EAF76C
:1014A000482F4095998149238023482B49836E2DED
:1014B0008F2D0E9438090F90DF91CF911F910F91CE
:1014C000FF90EF90DF90CF90BF90089580E0F3CF32
:1014D000CF92DF92EF92FF920F931F93CF93DF9300
:1014E0001F92CDB7DEB7F82EE62EC42ED22E08EE10
:1014F00013E09E012F5F3F4F41E00E94480981E0C9
:1015000090E001C0880FCA94EAF74981DD2081F09C
:10151000482B49836E2D8F2D0E9438090F90DF9143
:10152000CF911F910F91FF90EF90DF90CF90089592
:1015300080954823EECF21E042E06AE68091DF39D2
:101540000C94680A2F923F924F925F926F927F9213
:101550008F929F92AF92BF92CF92DF92EF92FF92C3
:101560000F931F93CF93DF933C015B01242E522EE8
:10157000302E6DE68091DF390E943809452D6EE6E8
:101580008091DF390E94380980E190E00E94571B6A
:101590006C01D0E0C0E0002329F080E190E00E94DF
:1015A000571BEC01F12CE12CC70140964A2C4E1838
:1015B000A816B90610F080E1482E80E091E0851968
:1015C00091094816190619F014F0452C419433205E
:1015D00079F0DE0190E080E093012E0D3F1D84152F
:1015E00050F4F901E80FF91FE491ED930196F7CF5C
:1015F000E301CE0DDF1D9E01442D6FE68091DF39A2
:101600000E940C09842C912CC114D104D1F1422DDB
:101610004F716DE68091DF390E943809452D6EE6E5
:101620008091DF390E94380908EE13E09601442DBD
:101630006FE68091DF390E944809A401B601CE010E
:101640000E947C1C892BE9F0C6010E94F31B332009
:1016500021F0CE010E94F31B312C832DDF91CF911D
:101660001F910F91FF90EF90DF90CF90BF90AF90C0
:101670009F908F907F906F905F904F903F902F90B2
:101680000895E80CF91CEA14FB04A8F4540C09F4BE
:101690002394422D4F716DE68091DF390E94380905
:1016A000452D6EE68091DF390E9438097DCFCE014D
:1016B0000E94F31BD2CFC6010E94F31B3110F7CF5B
:1016C00033243394CACF2F923F924F925F926F92FE
:1016D0007F928F929F92AF92BF92CF92DF92EF92C2
:1016E000FF920F931F93CF93DF93CDB7DEB7E197B0
:1016F000CDBFDEBF8D8F2A013B01680179018B339D
:1017000009F0D3C108EE13E09E012F5F3F4F41E087
:1017100065E78091DF390E944809882339F0898183
:101720008E7790E0959587958093E0398091E039A8
:10173000883308F4BFC127E72F8B33E0388F6EE37F
:101740008AEE98E30E94E304DE011D96AD8BBE8B0A
:10175000FE0131961F015D019F8828EE33E0AE0146
:101760004D5E5F4F692D8091DF390E946E080B89B5
:101770001C89B801012E000C880B990B0E94A3193B
:101780003F89333109F49BC101701127D5010D93B5
:101790001C9320E030E040E051E40E94531AF10134
:1017A0006083718382839383B88D9B0EE2E0AE0EDB
:1017B000B11CF4E02F0E311C2D893E892215330512
:1017C00061F63D8D3B3309F087C18DEC9CECACE4B8
:1017D000BDE38AA79BA7ACA7BDA746E050E04CA3FA
:1017E0005DA31AA21BA210E000E0CE0101968B8F30
:1017F0009C8FDE011D96A8A3B9A3BF89BE8FED8D76
:10180000EF8F812C912C5401198E1A8E28EE33E023
:10181000AE014D5E5F4F6F8D8091DF390E946E0883
:101820006B897C89072E000C880B990B0E94A319E9
:10183000FD8DFB3359F4298D3A8D2230310531F479
:1018400020E030E040E856E40E94F9189B01AC012A
:1018500050582EA33FA348A759A70E946B199B017C
:1018600077FF04C022273327261B370BC901330F0C
:10187000AA0BBB0B880E991EAA1EBB1E2FE632E1D7
:1018800043E85AE36EA17FA188A599A50E94531A47
:10189000A70196010E94531AAB8DBC8D2D913D91ED
:1018A0004D915C910E94FA186EA77FA788AB99AB07
:1018B000EB8DFC8D6083718382839383A3019201FE
:1018C0006EA17FA188A599A50E94531A2EA53FA5B8
:1018D00048A959A90E94FA18FF89F33109F405C1F2
:1018E00020E030E040E05EE30E94531A0E94C01AFC
:1018F0000E946B196E7FA8A1B9A18D919C91682B54
:10190000792B6B8B7C8BAE014D5E5F4F6E8D809122
:10191000DF390E944E08E98DFA8D3196E98FFA8FF2
:10192000FF8DFE5FFF8F2E8D388D230F2E8F48A1E8
:1019300059A14E5F5F4F48A359A38B8D9C8D049690
:101940008B8F9C8FA98DBA8D139709F05FCF0336CB
:10195000110571F4B9EE8B16B3E09B06A104B10436
:1019600038F06AE28AEE98E30E94E30410E000E0B7
:10197000C501B4010E94A1192AA53BA54CA55DA5EE
:101980000E94531A20E030E040EA50E40E946619B9
:1019900087FF05C0EAA1FBA13196EAA3FBA3F4E609
:1019A0008F169104A104B10408F0AAC00B301105F0
:1019B0000CF4A6C02AA13BA12A3031050CF4A0C02A
:1019C0006EE28AEE98E30E94E30420E030E040E417
:1019D0005FE3C301B2010E94531A2B013C0120E0D6
:1019E00030E040E45FE3C701B6010E94531A6B0187
:1019F0007C01AE01435F5F4F5A019F888E010F5FEC
:101A00001F4FD8016D917D918D919D918D01BF8961
:101A1000B33109F482C020E030E040E05EE30E9490
:101A2000531A0E94C01A0E946B196E7FF5018081C3
:101A30009181682B792B6B8B7C8BAE014D5E5F4F58
:101A4000692D8091DF390E944E08F88D9F0E22E0AB
:101A5000A20EB11C02151305A1F64CA15DA14150C7
:101A600051094CA35DA3452B09F0BBCE0E949B0AF4
:101A700021E043E06AE68091DF390E94680AE1963E
:101A8000CDBFDEBFDF91CF911F910F91FF90EF90FF
:101A9000DF90CF90BF90AF909F908F907F906F908E
:101AA0005F904F903F902F90089543E14F8B52E00D
:101AB000588F45CE86E08F8B92E0988F40CE20E005
:101AC00030E040E850E40E94531AD1016D937D93B9
:101AD0008D939C93139768CE20E030E040E85FE35D
:101AE0002AA73BA74CA75DA778CE20E030E040E8CE
:101AF0005EE30E94531A0E94C01A0E946B1901CF24
:101B000061E070E080E090E00E94EB060F5F1F4F05
:101B10000436110509F069CE53CF20E030E040E8EB
:101B20005EE30E94531A0E94C01A0E946B1983CF71
:101B3000682F809120088F7B809320088091210856
:101B40008C7F8093210880912008806180932008F9
:101B50008091F4398C3010F40E9499052091063A56
:101B60003091073A2230310550F0C901880F991F92
:101B700036952795820F931F05970197F1F70895E2
:101B800080E00C94980D81E00C94980DCF93C82FB1
:101B90000E94C00D8C2F0E943E048FEF0E943E04D5
:101BA000C82F0E94C30D8C2FCF910895EF92FF9202
:101BB0000F931F93CF93DF93C82F7B01142F0E94A5
:101BC000C00D8C2F8F7180620E943E04082FE701A8
:101BD000115020F089910E943E04FACF0E94C30D5B
:101BE000802FDF91CF911F910F91FF90EF9008957B
:101BF000CF93DF93C82FD62F0E94C00D8C2F8F71EB
:101C000080620E943E04C82F8D2F0E943E040E94D5
:101C1000C30D8C2FDF91CF91089580E00E94C60DF7
:101C200081FD0BC0682F626080E00E94F80D65E0C6
:101C300070E080E090E00C94EB0608950F931F9302
:101C4000CF938C0186E00E94C60DC82FC77D85E525
:101C500090E0A0E0B0E00230110529F4C0628BE909
:101C600090E0A0E0B0E08093023A9093033AA09312
:101C7000043AB093053A6C2F86E00E94F80D86E096
:101C80000E94C60D91E0C81390E0892FCF911F915B
:101C90000F910895FF920F931F93CF93DF93C091FD
:101CA000F939DC2FC03208F0D0E28091FA39CD1B2F
:101CB0008111C0E00E94C00D81E60E943E04F82E12
:101CC00003E818E3D15038F08FEF0E943E04F8018A
:101CD00081938F01F7CFC15020F08FEF0E943E0417
:101CE000FACF0E94C30D8F2DDF91CF911F910F91DD
:101CF000FF900895CF930E94C00D81EE0E943E0494
:101D0000C82F0E94C30D8C2FCF91089587E10E94A8
:101D1000C60D80FD06C00E944A0E60E787E00C9465
:101D2000F80D0895FC0101900020E9F73197AF010B
:101D3000481B590BBC018AEE98E30C946A05CF93BB
:101D4000DF930E94920EEC0186E799EB0E94920EBF
:101D50008C0F9D1FDF91CF9108951F920F920FB6A8
:101D60000F9211242F933F934F935F936F937F9321
:101D70008F939F93AF93BF93EF93FF938AEE98E374
:101D80000E949E04FF91EF91BF91AF919F918F911F
:101D90007F916F915F914F913F912F910F900FBE67
:101DA0000F901F9018951F920F920FB60F9211244B
:101DB0002F938F939F93EF93FF93E091F638F091D9
:101DC000F738818181FD1BC09081809100398F5F40
:101DD0008F7320910139821741F0E0910039F0E0D2
:101DE000E651F74C958F80930039FF91EF919F91C9
:101DF0008F912F910F900FBE0F901F90189580819B
:101E0000F4CF1F920F920FB60F9211242F933F938E
:101E10004F935F936F938F939F93AF93BF938091F3
:101E2000163890911738A0911838B0911938409110
:101E30001438509115389A01205D3C4F283E63E0DC
:101E4000360728F0285E33400196A11DB11D20936E
:101E50001438309315388093163890931738A09320
:101E60001838B093193880911A3890911B38A09186
:101E70001C38B0911D380196A11DB11D80931A38F0
:101E800090931B38A0931C38B0931D3881E0809349
:101E90008D0ABF91AF919F918F916F915F914F91FB
:101EA0003F912F910F900FBE0F901F9018951F928A
:101EB0000F920FB60F9211242F933F934F935F937E
:101EC0006F937F938F939F93AF93BF93EF93FF9302
:101ED00081E00E942707FF91EF91BF91AF919F9101
:101EE0008F917F916F915F914F913F912F910F90C3
:101EF0000FBE0F901F9018951F920F920FB60F9262
:101F000011242F933F934F935F936F937F938F93FE
:101F10009F93AF93BF93EF93FF9380E00E942707B7
:101F2000FF91EF91BF91AF919F918F917F916F91B1
:101F30005F914F913F912F910F900FBE0F901F9087
:101F400018951F920F920FB60F9211242F933F9363
:101F50004F935F936F937F938F939F93AF93BF93B1
:101F6000CF93EF93FF93C0911B08C2FF0AC010925A
:101F70001338109212381092113884E00E945807DA
:101F800012C0C6FF2DC080911038813041F480917D
:101F9000133890E0F0E0E0E0099510921038C0FFAF
:101FA00014C00E946507FF91EF91CF91BF91AF914F
:101FB0009F918F917F916F915F914F913F912F9161
:101FC0000F900FBE0F901F90189580E480931B0810
:101FD00081E00E94580780911B0885FFE4CFE1CF84
:101FE000C7FF50C0C3FF08C01092133810921238B8
:101FF0001092113883E0C2CF8091190880668093D7
:10200000190880911B0881FF26C08091123888230F
:1020100049F080911B0884FF05C082E080931A0874
:1020200081E0ACCF9091123880911138981778F4F4
:10203000E0911238F0E0808180931D088091123881
:102040008F5F8093123883E080931A08ACCF82E0D0
:1020500080931A0893CF9091133880910F38981776
:1020600060F480911D08E0911338F0E08083809146
:1020700013388F5F80931338E6CF86E080931A0879
:1020800082E07CCF85E07ACF1F920F920FB60F923D
:1020900011242F933F938F939F93EF93FF938091FE
:1020A0001508982F9C70C9F08091150894E082FF64
:1020B00093E090931E388093150881E08093223836
:1020C00010921F38FF91EF919F918F913F912F9127
:1020D0000F900FBE0F901F90189586FF4CC0209157
:1020E0000C3890910E388091150884FF10C08091B3
:1020F0000D38882351F083E08093140885E08093A5
:102100001E3810921F3881E031C081E0F5CF8091F8
:102110002038821790F4E091203880910A3890910D
:102120000B38E80FF92FF11D8081809318088091FA
:1021300020388F5F80932038C5CF80912138891750
:1021400048F484E08093223880910938816080933C
:102150001708B8CF80910D38882359F083E0809319
:10216000140881E080931E3810921F388093223823
:10217000A9CF81E0F4CF87FF3DC0909121388091B5
:102180000E389817D8F480911808E09121382091E2
:10219000A3383091A438E20FF32FF11D8083809192
:1021A00021388F5F8093213890910E3880912138AB
:1021B0008917C0F482E08093140884CF80910D3891
:1021C000882371F087E08093140882E080931E38A2
:1021D00010921F3881E08093223810920E3872CF0F
:1021E00085E0F1CF80910D38882311F087E0B7CFDB
:1021F00085E0B5CF86E083CFEAEEF8E31282138262
:1022000048EE53E060E070E0448355836683778353
:1022100080E599EB8083918380E098E084879587BF
:1022200094E0968785E08787108A29E0218B28E053
:10223000228B21E0238B148A158A168A178A108E26
:10224000118E2CE1228F138E148EE3EAF9E3918331
:1022500091E2908310928C39E5EAF9E312821382BD
:1022600044835583668377832AE639EB2083318361
:10227000E2EFF9E31082118221E030E02283338320
:10228000168290E297831086868785E090E0A0E032
:10229000B0E0848B958BA68BB78B118688E68093F4
:1022A000DF39EFECF9E380E090E0A0E8BFE3808362
:1022B0009183A283B38314821582168217821086BB
:1022C0001186128613861486158616861786E9EC03
:1022D000F9E3108211821282138214821582E3ECD8
:1022E000F9E3108211821282138214821582EDEBBF
:1022F000F9E3108211821282138214821582E1EBBB
:10230000F9E31082118212821382148215821682DE
:10231000178210861186128613860895CF93DF9355
:10232000CDB7DEB7C154D109CDBFDEBF11E088ED16
:1023300084BF109361008091020682608093020640
:102340008EE08093050680910006816080930006F0
:10235000809102068F7C8065809302061093030AA9
:102360008EEF8093260A8093270A80E88093280ABC
:1023700080932A0A80932C0A8093290A80932B0A3F
:1023800080932D0A9BE09093000A2DEF31E020937B
:10239000AE0A3093AF0A10938C0A1092810A809390
:1023A000820A81E18093800A78941092A638109274
:1023B000A5381092C7381092E938809122388111DF
:1023C0001AC062E086E00E94F00562E087E00E94A9
:1023D000F005109322381092213810922038109274
:1023E0001F3810921E3881EC8093130888E2809386
:1023F00016081093150840E855E260E070E08AEE98
:1024000098E30E94030962E083E00E94F00561E026
:1024100084E00E94F00560E084E00E94990501E0FC
:1024200023E042E06BE68091DF390E941D0A00E064
:1024300022E044E06BE18091DF390E941D0A22E036
:1024400044E06CE18091DF390E941D0A20E046E003
:102450006BE68091DF390E94680A08EE13E09E0166
:102460002F5F3F4F41E065E78091DF390E944809C7
:10247000882339F089818E7790E0959587958093B0
:10248000E0398091E039843321F089E799EB0E94AB
:102490009F0E21E047E06BE68091DF390E94680AD9
:1024A0006EE170E080E090E00E94EB0620E046E004
:1024B0006BE68091DF390E94680A40E76DE6809103
:1024C000DF390E94380946E06EE68091DF390E94CC
:1024D00038098FE899EB0E949F0E8DEA99EB0E94D4
:1024E000920E08EE13E020EE39E341E06FE68091B2
:1024F000DF390E9448094091E03950E070E060E027
:1025000019A2CE0181968A019B010F701127222703
:10251000332724E076956795579547952A95D1F707
:102520000A300CF03BC6005DDC010E93CD01411575
:1025300051056105710539F7AB2B11F00E94920E20
:1025400086E799EB0E94920E87EC99EB0E949F0E12
:1025500040E06DE68091DF390E9438094FE765E27F
:102560008091DF390E94380920E045E06AE68091D9
:10257000DF390E94680A48E665E28091DF390E94EF
:10258000380921E041E06AE68091DF390E94680A5B
:1025900064E170E080E090E00E94EB0603E023E05D
:1025A00042E06BE68091DF390E941D0A42E168E358
:1025B0008091DF390E94380944E069E18091DF3978
:1025C0000E94380901E023E045E06AE18091DF39AB
:1025D0000E941D0A03E023E042E06AE18091DF39B6
:1025E0000E941D0A22E044E06BE18091DF390E94E5
:1025F0001D0A01E020E040E069E877E08CE790E028
:102600000E94A20A882309F48BC0198281E08A8380
:1026100000E026E142E062E070E0CE0101960E9417
:10262000A20A43E060E78091DF390E94380940E068
:1026300061E78091DF390E94380920E040E060E0E6
:102640008091DF390E94680A42E06FE18091DF39B2
:102650000E9438094CE961E28091DF390E94380913
:1026600040E560E28091DF390E94380940E062E293
:102670008091DF390E94380921E046E06AE68091C6
:10268000DF390E94680A21E043E06AE68091DF3981
:102690000E94680A20E047E06AE68091DF390E94E4
:1026A000680A8AE290E08093F0399093F1390E94B1
:1026B0009B0A08EE13E020EE39E341E06AE38091E3
:1026C000DF390E9448098FEE99EB0E949F0E00E0CF
:1026D00010E028EA31E44EEA57E461EA7EE38BE356
:1026E0000E94630B0FEF1FEF2CEB32E44EEA57E42E
:1026F00061EA7EE383E40E94630B21E047E06AE63F
:102700008091DF390E94680A8091F0399091F13907
:1027100080933B3890933C388AEF99EB0E949F0E50
:102720008091F2399091F3392091F4393091F53953
:102730008217930729F08C3018F461E00E94F005AD
:102740008091F4399091F5392091F2393091F33933
:102750002817390729F08C3018F461E00E94F00541
:1027600080918C39811117C010928D3910928E3959
:1027700010928F39109290391092913910929239AB
:10278000109293391092943910929539109296398B
:1027900081E080938C39809101028B7F90918B39FD
:1027A000892B8093010261E088E00E94F00561E0DE
:1027B0008AE00E94F00580912108846080932108BE
:1027C000809120088162809320089091A3398091A4
:1027D000A43990932008809321088091F239909138
:1027E000F3392091F4393091F5398217930729F0A4
:1027F0008C3018F460E00E94990581E00E94980DE9
:1028000065E070E080E090E00E94EB066CE080E024
:102810000E94F80D6FE584E00E94F80D82E090E0E0
:102820000E941E0E882319F081E08093F83986E01B
:102830000E94C60D90E080E00E941E0E0E94C00D16
:1028400080E50E943E0483E70E943E040E94C30D7F
:1028500060E08DE10E94F80D60E08CE10E94F80DCF
:102860001092FA3960E787E00E94F80D6CE485E089
:102870000E94F80D0E94C00D82EE0E943E040E944C
:10288000C30D0E947A0E0E940D0E80E00E94C60DBC
:10289000682F6E7F80E00E94F80D6FE381E00E9458
:1028A000F80D64E385E00E94F80D80E28093F93929
:1028B00090E080E00E941E0E86E00E94C60D887F98
:1028C000682F616086E00E94F80D8DE10E94C60DC0
:1028D000682F66608DE10E94F80D8CE10E94C60DA4
:1028E000682F63608CE10E94F80D81E08093FA39D3
:1028F000ECE0F8E084914091003A62E279EB0E94CA
:10290000D60DE6E0F8E084916091F9390E94F80D67
:1029100082E00E94C60DE2E1F8E0E49161E070E03F
:1029200001C0660FEA95EAF7682B82E00E94F80D75
:102930000E940D0E80E00E94C60D682F616080E04D
:102940000E94F80D60E787E00E94F80D8091F2394F
:102950009091F3392091F4393091F539821793072A
:1029600029F08C3018F461E00E9499058091FB39C0
:10297000882309F415C44091003A6BEF79E38AE0AB
:102980000E94D60D8DE10E94C60D81FD0E947A0E37
:102990000E944A0E60E787E00E94F80D86E89EE0FC
:1029A00080932F389093303880911604887F8093DD
:1029B00016048091160483608093160461E084E01D
:1029C0000E9499050E949B0A0E94040A80933D3848
:1029D00090933E3840913B3850913C3880913D383F
:1029E00090913E388417950778F3442309F4EBC39C
:1029F00008EE13E023E438E364E78091DF390E94B6
:102A000048090091473810914838102701271027AE
:102A1000C0904B38D0904C38DC24CD24DC24E0909E
:102A20004F38F0905038FE24EF24FE246091433854
:102A300070914438762767277627072E000C880B7D
:102A4000990B0E94A31920E030E040E858E30E946F
:102A5000531A6AA77BA78CA79DA76093CF39709361
:102A6000D0398093D1399093D239B801110F880BA6
:102A7000990B0E94A31920E030E040E858E30E943F
:102A8000531A6EA37FA388A799A76093D339709335
:102A9000D4398093D5399093D639B601DD0C880BA3
:102AA000990B0E94A31920E030E040E858E30E940F
:102AB000531A6AA37BA38CA39DA36093D739709309
:102AC000D8398093D9399093DA39B701FF0C880B44
:102AD000990B0E94A31920E030E040E858E30E94DF
:102AE000531A6EA77FA788AB99AB6093DB397093BD
:102AF000DC398093DD399093DE3960905F387090D7
:102B000060387624672476246092C9397092CA3975
:102B10000091633810916438102701271027009323
:102B2000CB391093CC3920906738309068383224F4
:102B3000232432242092CD393092CE399B01AC012E
:102B40006EA17FA188A599A50E94531A6B017C01F3
:102B50002AA13BA14CA15DA16AA57BA58CA59DA541
:102B60000E94531A9B01AC01C701B6010E94F918DB
:102B70009B01AC010E94FA184B015C018092B139B3
:102B80009092B239A092B339B092B4392EA13FA13C
:102B900048A559A56AA57BA58CA59DA50E94531A99
:102BA0006B017C012EA53FA548A959A96AA17BA16B
:102BB0008CA19DA10E94531A9B01AC01C701B601D3
:102BC0000E94FA189B01AC010E94FA186AAB7BAB19
:102BD0008CAB9DAB6093B5397093B6398093B739A0
:102BE0009093B8392AA53BA54CA55DA5CA01B901AA
:102BF0000E94531A6B017C012EA13FA148A559A543
:102C0000CA01B9010E94531A9B01AC01C701B60168
:102C10000E94F9186B017C012AA13BA14CA15DA186
:102C2000CA01B9010E94531A9B01AC01C701B60148
:102C30000E94F9186B017C012EA53FA548A959A94E
:102C4000CA01B9010E94531A9B01AC01C701B60128
:102C50000E94FA186B017C01C092B939D092BA393E
:102C6000E092BB39F092BC39B301770C880B990B19
:102C70000E94A3192B013C0120E030E040E056E423
:102C8000C501B4010E94531A9B01AC01C301B201FA
:102C90000E94F9180E946B196EAB7FAB88AF99AF99
:102CA000EEA9FFA9E093C339F093C439B801110F1D
:102CB000880B990B0E94A3194B015C0120E030E0C6
:102CC00040E056E46AA97BA98CA99DA90E94531AE9
:102CD0009B01AC01C501B4010E94F9180E946B1957
:102CE0004B016093C5397093C639B101330C880B21
:102CF000990B0E94A3192B013C0120E030E040E039
:102D000056E4C701B6010E94531A9B01AC01C301EE
:102D1000B2010E94F9180E946B196093C739709331
:102D2000C839072E000C880B990B0E94A3196AABB7
:102D30007BAB8CAB9DABB401990C880B990B0E94BB
:102D4000A3196B017C012EA93FA9B901330F880B90
:102D5000990B0E94A3194B015C012AA93BA94CA91C
:102D60005DA96AA57BA58CA59DA50E94531A2B0180
:102D70003C01A70196016EA17FA188A599A50E949B
:102D8000531A9B01AC01C301B2010E94FA182B0136
:102D90003C01A50194016AA17BA18CA19DA10E9487
:102DA000531A9B01AC01C301B2010E94F9182B0117
:102DB0003C0120E030E0A9016EA57FA588A999A972
:102DC0000E94531A9B01AC01C301B2010E94FA1880
:102DD0006EAB7FAB88AF99AFA70196016AA57BA5C3
:102DE0008CA59DA50E94531A2B013C012AA93BA941
:102DF0004CA95DA96EA17FA188A599A50E94531A2F
:102E00009B01AC01C301B2010E94F9182B013C01E6
:102E100020E030E0A9016AA17BA18CA19DA10E94C4
:102E2000531A9B01AC01C301B2010E94FA182B0195
:102E30003C01A50194016EA57FA588A999A90E94CE
:102E4000531A9B01AC01C301B2010E94FA186AAF88
:102E50007BAF8CAF9DAFA50194016AA57BA58CA526
:102E60009DA50E94531A2B013C0120E030E0A901EE
:102E70006EA17FA188A599A50E94531A9B01AC0160
:102E8000C301B2010E94FA182B013C012AA93BA9F7
:102E90004CA95DA96AA17BA18CA19DA10E94531A96
:102EA0009B01AC01C301B2010E94FA182B013C0145
:102EB000A70196016EA57FA588A999A90E94531A1A
:102EC0009B01AC01C301B2010E94F91822966CAFBC
:102ED0007DAF8EAF9FAF229720E030E0A9016AA5B9
:102EE0007BA58CA59DA50E94531A2B013C01A50131
:102EF00094016EA17FA188A599A50E94531A9B01F8
:102F0000AC01C301B2010E94F9184B015C01A70199
:102F100096016AA17BA18CA19DA10E94531A9B01DD
:102F2000AC01C501B4010E94F9186B017C012AA90A
:102F30003BA94CA95DA96EA57FA588A999A90E9466
:102F4000531A9B01AC01C701B6010E94F9182B016D
:102F50003C018EA49FA4A8A8B9A8B7FAB094B7F86A
:102F6000B0948AA19BA1ACA1BDA1B0588AA39BA398
:102F7000ACA3BDA38EA19FA1A8A5B9A5B0588EA34F
:102F80009FA3A8A7B9A7A3019201BC01CD010E94EC
:102F9000531A6B017C0122962CAD3DAD4EAD5FAD59
:102FA00022976AA57BA58CA59DA50E94531A9B011B
:102FB000AC01C701B6010E94FA186B017C012AAD71
:102FC0003BAD4CAD5DADC501B4010E94531A9B01F0
:102FD000AC01C701B6010E94FA186B017C012EA951
:102FE0003FA948AD59AD6AA17BA18CA19DA10E94CA
:102FF000531A9B01AC01C701B6010E94F9180E9447
:103000006B196093BD397093BE39A30192016AA117
:103010007BA18CA19DA10E94531A6B017C01229679
:103020002CAD3DAD4EAD5FAD2297C501B4010E9400
:10303000531A9B01AC01C701B6010E94F9186B013C
:103040007C012AAD3BAD4CAD5DAD6AA57BA58CA5E1
:103050009DA50E94531A9B01AC01C701B6010E94B5
:10306000FA186B017C012EA93FA948AD59AD6EA19C
:103070007FA188A599A50E94531A9B01AC01C701A5
:10308000B6010E94FA180E946B196B016093BF3958
:103090007093C039A3019201C501B4010E94531A73
:1030A0004B015C0122962CAD3DAD4EAD5FAD22973C
:1030B0006AA17BA18CA19DA10E94531A9B01AC0126
:1030C000C501B4010E94FA184B015C012AAD3BAD69
:1030D0004CAD5DAD6EA17FA188A599A50E94531A44
:1030E0009B01AC01C501B4010E94F9184B015C01C0
:1030F0002EA93FA948AD59AD6AA57BA58CA59DA574
:103100000E94531A9B01AC01C501B4010E94FA1838
:103110000E946B194B016093C1397093C239B6019B
:10312000DD0C880B990B0E94A3192AE038EE4CE9BC
:103130005AE30E94531A0E946B19162F60933F386E
:10314000B401990C880B990B0E94A3192AE038EE60
:103150004CE95AE30E94531A0E946B19609340385D
:103160008091080487FF32C010924138160F609199
:103170004138160F109342380E94C00D89EA0E9410
:103180003E048FE3E82E88E3F82E11E2115011F18E
:10319000D7018D917D010E943E04F8CF095CC4C91E
:1031A00082E00E94C60DE1E1F8E0E49121E030E028
:1031B00001C0220FEA95EAF72095622F682382E08A
:1031C0000E94F80DDFCB109243381BCC91E0909316
:1031D0004138CCCF0E94C30DE0E0F0E0EF2B09F4C2
:1031E000F1CB0E945605882309F4ECCB0E94000025
:1031F000E9CB5058BB27AA270E9411190C94191A21
:103200000E940B1A38F00E94121A20F039F49F3FE6
:1032100019F426F40C94081A0EF4E095E7FB0C94CC
:10322000021AE92F0E942A1A58F3BA176207730785
:103230008407950720F079F4A6F50C944C1A0EF447
:10324000E0950B2EBA2FA02D0B01B90190010C01B6
:10325000CA01A0011124FF27591B99F0593F50F4CE
:10326000503E68F11A16F040A22F232F342F442726
:10327000585FF3CF469537952795A795F04053951E
:10328000C9F77EF41F16BA0B620B730B840BBAF0EE
:103290009150A1F0FF0FBB1F661F771F881FC2F759
:1032A0000EC0BA0F621F731F841F48F4879577956D
:1032B0006795B795F7959E3F08F0B0CF9395880F27
:1032C00008F09927EE0F9795879508950E94DE19CB
:1032D00008F481E008950E9472196894B1110C9469
:1032E0004D1A08950E94321A88F09F5798F0B92F0E
:1032F0009927B751B0F0E1F0660F771F881F991F2B
:103300001AF0BA95C9F714C0B13091F00E944C1A66
:10331000B1E008950C944C1A672F782F8827B85F76
:1033200039F0B93FCCF3869577956795B395D9F782
:103330003EF490958095709561957F4F8F4F9F4F8C
:103340000895E89409C097FB3EF490958095709598
:1033500061957F4F8F4F9F4F9923A9F0F92F96E9E1
:10336000BB279395F695879577956795B795F11156
:10337000F8CFFAF4BB0F11F460FF1BC06F5F7F4FF3
:103380008F4F9F4F16C0882311F096E911C0772305
:1033900021F09EE8872F762F05C0662371F096E80E
:1033A000862F70E060E02AF09A95660F771F881FDD
:1033B000DAF7880F9695879597F90895990F000881
:1033C000550FAA0BE0E8FEEF16161706E807F907F7
:1033D000C0F012161306E407F50798F0621B730B92
:1033E000840B950B39F40A2661F0232B242B252B13
:1033F00021F408950A2609F4A140A6958FEF811DB6
:10340000811D089597F99F6780E870E060E0089556
:103410009FEF80EC089500240A94161617061806EC
:103420000906089500240A941216130614060506C8
:103430000895092E0394000C11F4882352F0BB0F59
:1034400040F4BF2B11F460FF04C06F5F7F4F8F4FBC
:103450009F4F089557FD9058440F551F59F05F3FF7
:1034600071F04795880F97FB991F61F09F3F79F0A6
:1034700087950895121613061406551FF2CF469528
:10348000F1DF08C0161617061806991FF1CF8695AA
:103490007105610508940895E894BB27662777278E
:1034A000CB0197F908950E94661A0C94191A0E948C
:1034B0000B1A38F00E94121A20F0952311F00C9488
:1034C000021A0C94081A11240C944D1A0E942A1AFC
:1034D00070F3959FC1F3950F50E0551F629FF00167
:1034E000729FBB27F00DB11D639FAA27F00DB11D80
:1034F000AA1F649F6627B00DA11D661F829F222709
:10350000B00DA11D621F739FB00DA11D621F839F8F
:10351000A00D611D221F749F3327A00D611D231F65
:10352000849F600D211D822F762F6A2F11249F57B3
:1035300050409AF0F1F088234AF0EE0FFF1FBB1FB6
:10354000661F771F881F91505040A9F79E3F510575
:1035500080F00C94021A0C944D1A5F3FE4F3983EED
:10356000D4F3869577956795B795F795E7959F5F1F
:10357000C1F7FE2B880F911D9695879597F90895B1
:103580000E94321AE8F09E37E8F09639B8F49E3877
:1035900048F4672F782F8827985FF9CF869577951D
:1035A000679593959539D0F3B62FB1706B0F711D58
:1035B000811D20F487957795679593950C94E41A6F
:1035C0000C94FF1A0C944D1A882371F4772321F080
:1035D0009850872B762F07C0662311F499270DC0CA
:1035E0009051862B70E060E02AF09A95660F771F65
:1035F000881FDAF7880F9695879597F908959F3F6A
:1036000031F0915020F4879577956795B795880F9D
:10361000911D9695879597F90895A1E21A2EAA1BF8
:10362000BB1BFD010DC0AA1FBB1FEE1FFF1FA21772
:10363000B307E407F50720F0A21BB30BE40BF50B6F
:10364000661F771F881F991F1A9469F760957095F8
:10365000809590959B01AC01BD01CF0108950E941A
:10366000481BA59F900DB49F900DA49F800D911DA8
:1036700011240895B7FF0C942F1B0E942F1B821B4F
:10368000930B0895EE0FFF1F0590F491E02D099420
:10369000A29FB001B39FC001A39F700D811D112493
:1036A000911DB29F700D811D1124911D08950F93DE
:1036B0001F93CF93DF938230910510F482E090E066
:1036C000E0910C3AF0910D3A30E020E0B0E0A0E05B
:1036D000309799F42115310509F44AC0281B390B9C
:1036E00024303105D8F58A819B816115710589F1F6
:1036F000FB0182839383FE0111C0408151810281CD
:10370000138148175907E0F04817590799F41097A3
:1037100061F012960C93129713961C933296CF0178
:10372000DF91CF911F910F91089500930C3A109360
:103730000D3AF4CF2115310551F04217530738F0F7
:10374000A901DB019A01BD01DF01F801C1CFEF0141
:10375000F9CF80930C3A90930D3ACDCFFE01E20F52
:10376000F31F819391932250310928833983D7CF56
:1037700020910A3A30910B3A232B41F420910238E0
:103780003091033820930A3A30930B3A2091003855
:10379000309101382115310541F42DB73EB74091E4
:1037A000043850910538241B350BE0910A3AF0910A
:1037B0000B3AE217F307A0F42E1B3F0B281739072B
:1037C00078F0AC014E5F5F4F2417350748F04E0F7D
:1037D0005F1F40930A3A50930B3A819391939FCF86
:1037E000F0E0E0E09CCFCF93DF930097E9F0FC019D
:1037F000329712821382A0910C3AB0910D3AED01EA
:1038000030E020E01097A1F420813181820F931FD6
:1038100020910A3A30910B3A2817390709F061C014
:10382000E0930A3AF0930B3ADF91CF910895EA01C1
:10383000CE17DF07E8F54A815B819E0141155105EE
:10384000B1F7E901EA83FB8349915991C40FD51F70
:10385000EC17FD0761F4808191810296840F951F1A
:10386000E90188839983828193818A839B83F0E035
:10387000E0E012968D919C9113970097B9F52D91E8
:103880003C911197CD010296820F931F20910A3A25
:1038900030910B3A2817390739F6309751F51092C5
:1038A0000C3A10920D3AA0930A3AB0930B3ABCCF5F
:1038B000C283D38340815181840F951FC817D907D4
:1038C00061F44E5F5F4F88819981480F591F408393
:1038D00051838A819B81828393832115310509F06D
:1038E000B0CFE0930C3AF0930D3A9ECFFD01DC018E
:1038F000C0CF12821382D7CFFB01DC0104C08D91AF
:103900000190801921F441505040C8F7881B990B51
:063910000895F894FFCFBA
:10391600101080000010101000001000AA4433227E
:10392600110004050607030201000102030000005E
:103936000000010101010000000010204080080481
:1039460002010204080100000000E3046A0579048C
:1039560057046B04340503091E06850497054804BD
:103966000000000033080E083704FB07EC07EB07DE
:103976000D0A00426C616420706F6C61637A656E3B
:103986006961207A204D505500436865636B696E06
:103996006720686172647761726520726576697303
:1039A600696F6E2E2E2E005265766973696F6E20D2
:1039B6004020757365725B31365D5B365D203D2058
:1039C60000526573657474696E67206D656D6F72FC
:1039D600792062616E6B2073656C656374696F6EC6
:1039E60020746F20302E2E2E004B616C696272613E
:1039F600636A61004B616C69627261636A61207A15
:0A3A0600616B6F6E637A6F6E6100F2
:063A100000000E3A8000E8
:00000001FF
